{
  "_format": "hh-sol-artifact-1",
  "contractName": "ScmNFT",
  "sourceName": "contracts/ScmNFT.sol",
  "abi": [
    {
      "inputs": [],
      "stateMutability": "nonpayable",
      "type": "constructor"
    },
    {
      "anonymous": false,
      "inputs": [
        {
          "indexed": true,
          "internalType": "address",
          "name": "owner",
          "type": "address"
        },
        {
          "indexed": true,
          "internalType": "address",
          "name": "approved",
          "type": "address"
        },
        {
          "indexed": true,
          "internalType": "uint256",
          "name": "tokenId",
          "type": "uint256"
        }
      ],
      "name": "Approval",
      "type": "event"
    },
    {
      "anonymous": false,
      "inputs": [
        {
          "indexed": true,
          "internalType": "address",
          "name": "owner",
          "type": "address"
        },
        {
          "indexed": true,
          "internalType": "address",
          "name": "operator",
          "type": "address"
        },
        {
          "indexed": false,
          "internalType": "bool",
          "name": "approved",
          "type": "bool"
        }
      ],
      "name": "ApprovalForAll",
      "type": "event"
    },
    {
      "anonymous": false,
      "inputs": [
        {
          "indexed": true,
          "internalType": "address",
          "name": "from",
          "type": "address"
        },
        {
          "indexed": true,
          "internalType": "address",
          "name": "to",
          "type": "address"
        },
        {
          "indexed": true,
          "internalType": "uint256",
          "name": "tokenId",
          "type": "uint256"
        }
      ],
      "name": "Transfer",
      "type": "event"
    },
    {
      "inputs": [
        {
          "internalType": "address",
          "name": "to",
          "type": "address"
        },
        {
          "internalType": "uint256",
          "name": "tokenId",
          "type": "uint256"
        }
      ],
      "name": "approve",
      "outputs": [],
      "stateMutability": "nonpayable",
      "type": "function"
    },
    {
      "inputs": [
        {
          "internalType": "address",
          "name": "owner",
          "type": "address"
        }
      ],
      "name": "balanceOf",
      "outputs": [
        {
          "internalType": "uint256",
          "name": "",
          "type": "uint256"
        }
      ],
      "stateMutability": "view",
      "type": "function"
    },
    {
      "inputs": [
        {
          "internalType": "uint256",
          "name": "tokenId",
          "type": "uint256"
        }
      ],
      "name": "getApproved",
      "outputs": [
        {
          "internalType": "address",
          "name": "",
          "type": "address"
        }
      ],
      "stateMutability": "view",
      "type": "function"
    },
    {
      "inputs": [
        {
          "internalType": "address",
          "name": "owner",
          "type": "address"
        },
        {
          "internalType": "address",
          "name": "operator",
          "type": "address"
        }
      ],
      "name": "isApprovedForAll",
      "outputs": [
        {
          "internalType": "bool",
          "name": "",
          "type": "bool"
        }
      ],
      "stateMutability": "view",
      "type": "function"
    },
    {
      "inputs": [
        {
          "internalType": "address",
          "name": "from",
          "type": "address"
        },
        {
          "internalType": "address",
          "name": "to",
          "type": "address"
        },
        {
          "internalType": "uint256[]",
          "name": "tokenIds",
          "type": "uint256[]"
        }
      ],
      "name": "multiSafeTransferFrom",
      "outputs": [],
      "stateMutability": "nonpayable",
      "type": "function"
    },
    {
      "inputs": [],
      "name": "name",
      "outputs": [
        {
          "internalType": "string",
          "name": "",
          "type": "string"
        }
      ],
      "stateMutability": "view",
      "type": "function"
    },
    {
      "inputs": [
        {
          "internalType": "uint256",
          "name": "tokenId",
          "type": "uint256"
        }
      ],
      "name": "ownerOf",
      "outputs": [
        {
          "internalType": "address",
          "name": "",
          "type": "address"
        }
      ],
      "stateMutability": "view",
      "type": "function"
    },
    {
      "inputs": [
        {
          "internalType": "address",
          "name": "from",
          "type": "address"
        },
        {
          "internalType": "address",
          "name": "to",
          "type": "address"
        },
        {
          "internalType": "uint256",
          "name": "tokenId",
          "type": "uint256"
        }
      ],
      "name": "safeTransferFrom",
      "outputs": [],
      "stateMutability": "nonpayable",
      "type": "function"
    },
    {
      "inputs": [
        {
          "internalType": "address",
          "name": "from",
          "type": "address"
        },
        {
          "internalType": "address",
          "name": "to",
          "type": "address"
        },
        {
          "internalType": "uint256",
          "name": "tokenId",
          "type": "uint256"
        },
        {
          "internalType": "bytes",
          "name": "data",
          "type": "bytes"
        }
      ],
      "name": "safeTransferFrom",
      "outputs": [],
      "stateMutability": "nonpayable",
      "type": "function"
    },
    {
      "inputs": [
        {
          "internalType": "string",
          "name": "tokenURI",
          "type": "string"
        }
      ],
      "name": "selfMintNFT",
      "outputs": [
        {
          "internalType": "uint256",
          "name": "",
          "type": "uint256"
        }
      ],
      "stateMutability": "nonpayable",
      "type": "function"
    },
    {
      "inputs": [
        {
          "internalType": "address",
          "name": "operator",
          "type": "address"
        },
        {
          "internalType": "bool",
          "name": "approved",
          "type": "bool"
        }
      ],
      "name": "setApprovalForAll",
      "outputs": [],
      "stateMutability": "nonpayable",
      "type": "function"
    },
    {
      "inputs": [
        {
          "internalType": "bytes4",
          "name": "interfaceId",
          "type": "bytes4"
        }
      ],
      "name": "supportsInterface",
      "outputs": [
        {
          "internalType": "bool",
          "name": "",
          "type": "bool"
        }
      ],
      "stateMutability": "view",
      "type": "function"
    },
    {
      "inputs": [],
      "name": "symbol",
      "outputs": [
        {
          "internalType": "string",
          "name": "",
          "type": "string"
        }
      ],
      "stateMutability": "view",
      "type": "function"
    },
    {
      "inputs": [
        {
          "internalType": "uint256",
          "name": "tokenId",
          "type": "uint256"
        }
      ],
      "name": "tokenURI",
      "outputs": [
        {
          "internalType": "string",
          "name": "",
          "type": "string"
        }
      ],
      "stateMutability": "view",
      "type": "function"
    },
    {
      "inputs": [
        {
          "internalType": "address",
          "name": "from",
          "type": "address"
        },
        {
          "internalType": "address",
          "name": "to",
          "type": "address"
        },
        {
          "internalType": "uint256",
          "name": "tokenId",
          "type": "uint256"
        }
      ],
      "name": "transferFrom",
      "outputs": [],
      "stateMutability": "nonpayable",
      "type": "function"
    }
  ],
  "bytecode": "0x60806040523480156200001157600080fd5b506040518060400160405280600681526020017f53636d4e465400000000000000000000000000000000000000000000000000008152506040518060400160405280600381526020017f53434d0000000000000000000000000000000000000000000000000000000000815250816000908051906020019062000096929190620000b8565b508060019080519060200190620000af929190620000b8565b505050620001cd565b828054620000c69062000168565b90600052602060002090601f016020900481019282620000ea576000855562000136565b82601f106200010557805160ff191683800117855562000136565b8280016001018555821562000136579182015b828111156200013557825182559160200191906001019062000118565b5b50905062000145919062000149565b5090565b5b80821115620001645760008160009055506001016200014a565b5090565b600060028204905060018216806200018157607f821691505b602082108114156200019857620001976200019e565b5b50919050565b7f4e487b7100000000000000000000000000000000000000000000000000000000600052602260045260246000fd5b612a4d80620001dd6000396000f3fe608060405234801561001057600080fd5b50600436106100f55760003560e01c806370a0823111610097578063a22cb46511610066578063a22cb46514610296578063b88d4fde146102b2578063c87b56dd146102ce578063e985e9c5146102fe576100f5565b806370a08231146101fc5780637dd4fc651461022c578063862a7edd1461024857806395d89b4114610278576100f5565b8063095ea7b3116100d3578063095ea7b31461017857806323b872dd1461019457806342842e0e146101b05780636352211e146101cc576100f5565b806301ffc9a7146100fa57806306fdde031461012a578063081812fc14610148575b600080fd5b610114600480360381019061010f9190611cfb565b61032e565b60405161012191906120b6565b60405180910390f35b610132610410565b60405161013f91906120d1565b60405180910390f35b610162600480360381019061015d9190611d8e565b6104a2565b60405161016f919061204f565b60405180910390f35b610192600480360381019061018d9190611cbf565b6104e8565b005b6101ae60048036038101906101a99190611bb9565b610600565b005b6101ca60048036038101906101c59190611bb9565b610660565b005b6101e660048036038101906101e19190611d8e565b610680565b6040516101f3919061204f565b60405180910390f35b61021660048036038101906102119190611aed565b610732565b6040516102239190612273565b60405180910390f35b61024660048036038101906102419190611b52565b6107ea565b005b610262600480360381019061025d9190611d4d565b61085a565b60405161026f9190612273565b60405180910390f35b610280610896565b60405161028d91906120d1565b60405180910390f35b6102b060048036038101906102ab9190611c83565b610928565b005b6102cc60048036038101906102c79190611c08565b61093e565b005b6102e860048036038101906102e39190611d8e565b6109a0565b6040516102f591906120d1565b60405180910390f35b61031860048036038101906103139190611b16565b610ab3565b60405161032591906120b6565b60405180910390f35b60007f80ac58cd000000000000000000000000000000000000000000000000000000007bffffffffffffffffffffffffffffffffffffffffffffffffffffffff1916827bffffffffffffffffffffffffffffffffffffffffffffffffffffffff191614806103f957507f5b5e139f000000000000000000000000000000000000000000000000000000007bffffffffffffffffffffffffffffffffffffffffffffffffffffffff1916827bffffffffffffffffffffffffffffffffffffffffffffffffffffffff1916145b80610409575061040882610b47565b5b9050919050565b60606000805461041f906124f5565b80601f016020809104026020016040519081016040528092919081815260200182805461044b906124f5565b80156104985780601f1061046d57610100808354040283529160200191610498565b820191906000526020600020905b81548152906001019060200180831161047b57829003601f168201915b5050505050905090565b60006104ad82610bb1565b6004600083815260200190815260200160002060009054906101000a900473ffffffffffffffffffffffffffffffffffffffff169050919050565b60006104f382610680565b90508073ffffffffffffffffffffffffffffffffffffffff168373ffffffffffffffffffffffffffffffffffffffff161415610564576040517f08c379a000000000000000000000000000000000000000000000000000000000815260040161055b90612233565b60405180910390fd5b8073ffffffffffffffffffffffffffffffffffffffff16610583610bfc565b73ffffffffffffffffffffffffffffffffffffffff1614806105b257506105b1816105ac610bfc565b610ab3565b5b6105f1576040517f08c379a00000000000000000000000000000000000000000000000000000000081526004016105e890612253565b60405180910390fd5b6105fb8383610c04565b505050565b61061161060b610bfc565b82610cbd565b610650576040517f08c379a0000000000000000000000000000000000000000000000000000000008152600401610647906120f3565b60405180910390fd5b61065b838383610d52565b505050565b61067b8383836040518060200160405280600081525061093e565b505050565b6000806002600084815260200190815260200160002060009054906101000a900473ffffffffffffffffffffffffffffffffffffffff169050600073ffffffffffffffffffffffffffffffffffffffff168173ffffffffffffffffffffffffffffffffffffffff161415610729576040517f08c379a000000000000000000000000000000000000000000000000000000000815260040161072090612213565b60405180910390fd5b80915050919050565b60008073ffffffffffffffffffffffffffffffffffffffff168273ffffffffffffffffffffffffffffffffffffffff1614156107a3576040517f08c379a000000000000000000000000000000000000000000000000000000000815260040161079a906121b3565b60405180910390fd5b600360008373ffffffffffffffffffffffffffffffffffffffff1673ffffffffffffffffffffffffffffffffffffffff168152602001908152602001600020549050919050565b60005b8151811015610854576108418484848481518110610834577f4e487b7100000000000000000000000000000000000000000000000000000000600052603260045260246000fd5b6020026020010151610660565b808061084c90612558565b9150506107ed565b50505050565b60008033905061086a6007610fe4565b60006108766007610ffa565b90506108828282611008565b61088c81856111e2565b8092505050919050565b6060600180546108a5906124f5565b80601f01602080910402602001604051908101604052809291908181526020018280546108d1906124f5565b801561091e5780601f106108f35761010080835404028352916020019161091e565b820191906000526020600020905b81548152906001019060200180831161090157829003601f168201915b5050505050905090565b61093a610933610bfc565b8383611256565b5050565b61094f610949610bfc565b83610cbd565b61098e576040517f08c379a0000000000000000000000000000000000000000000000000000000008152600401610985906120f3565b60405180910390fd5b61099a848484846113c3565b50505050565b60606109ab82610bb1565b60006006600084815260200190815260200160002080546109cb906124f5565b80601f01602080910402602001604051908101604052809291908181526020018280546109f7906124f5565b8015610a445780601f10610a1957610100808354040283529160200191610a44565b820191906000526020600020905b815481529060010190602001808311610a2757829003601f168201915b505050505090506000610a5561141f565b9050600081511415610a6b578192505050610aae565b600082511115610aa0578082604051602001610a8892919061202b565b60405160208183030381529060405292505050610aae565b610aa984611436565b925050505b919050565b6000600560008473ffffffffffffffffffffffffffffffffffffffff1673ffffffffffffffffffffffffffffffffffffffff16815260200190815260200160002060008373ffffffffffffffffffffffffffffffffffffffff1673ffffffffffffffffffffffffffffffffffffffff16815260200190815260200160002060009054906101000a900460ff16905092915050565b60007f01ffc9a7000000000000000000000000000000000000000000000000000000007bffffffffffffffffffffffffffffffffffffffffffffffffffffffff1916827bffffffffffffffffffffffffffffffffffffffffffffffffffffffff1916149050919050565b610bba8161149e565b610bf9576040517f08c379a0000000000000000000000000000000000000000000000000000000008152600401610bf090612213565b60405180910390fd5b50565b600033905090565b816004600083815260200190815260200160002060006101000a81548173ffffffffffffffffffffffffffffffffffffffff021916908373ffffffffffffffffffffffffffffffffffffffff160217905550808273ffffffffffffffffffffffffffffffffffffffff16610c7783610680565b73ffffffffffffffffffffffffffffffffffffffff167f8c5be1e5ebec7d5bd14f71427d1e84f3dd0314c0f7b2291e5b200ac8c7c3b92560405160405180910390a45050565b600080610cc983610680565b90508073ffffffffffffffffffffffffffffffffffffffff168473ffffffffffffffffffffffffffffffffffffffff161480610d0b5750610d0a8185610ab3565b5b80610d4957508373ffffffffffffffffffffffffffffffffffffffff16610d31846104a2565b73ffffffffffffffffffffffffffffffffffffffff16145b91505092915050565b8273ffffffffffffffffffffffffffffffffffffffff16610d7282610680565b73ffffffffffffffffffffffffffffffffffffffff1614610dc8576040517f08c379a0000000000000000000000000000000000000000000000000000000008152600401610dbf90612133565b60405180910390fd5b600073ffffffffffffffffffffffffffffffffffffffff168273ffffffffffffffffffffffffffffffffffffffff161415610e38576040517f08c379a0000000000000000000000000000000000000000000000000000000008152600401610e2f90612173565b60405180910390fd5b610e4383838361150a565b6004600082815260200190815260200160002060006101000a81549073ffffffffffffffffffffffffffffffffffffffff02191690556001600360008573ffffffffffffffffffffffffffffffffffffffff1673ffffffffffffffffffffffffffffffffffffffff1681526020019081526020016000206000828254610ec9919061240b565b925050819055506001600360008473ffffffffffffffffffffffffffffffffffffffff1673ffffffffffffffffffffffffffffffffffffffff1681526020019081526020016000206000828254610f209190612384565b92505081905550816002600083815260200190815260200160002060006101000a81548173ffffffffffffffffffffffffffffffffffffffff021916908373ffffffffffffffffffffffffffffffffffffffff160217905550808273ffffffffffffffffffffffffffffffffffffffff168473ffffffffffffffffffffffffffffffffffffffff167fddf252ad1be2c89b69c2b068fc378daa952ba7f163c4a11628f55a4df523b3ef60405160405180910390a4610fdf83838361150f565b505050565b6001816000016000828254019250508190555050565b600081600001549050919050565b600073ffffffffffffffffffffffffffffffffffffffff168273ffffffffffffffffffffffffffffffffffffffff161415611078576040517f08c379a000000000000000000000000000000000000000000000000000000000815260040161106f906121f3565b60405180910390fd5b6110818161149e565b156110c1576040517f08c379a00000000000000000000000000000000000000000000000000000000081526004016110b890612153565b60405180910390fd5b6110cd6000838361150a565b6001600360008473ffffffffffffffffffffffffffffffffffffffff1673ffffffffffffffffffffffffffffffffffffffff168152602001908152602001600020600082825461111d9190612384565b92505081905550816002600083815260200190815260200160002060006101000a81548173ffffffffffffffffffffffffffffffffffffffff021916908373ffffffffffffffffffffffffffffffffffffffff160217905550808273ffffffffffffffffffffffffffffffffffffffff16600073ffffffffffffffffffffffffffffffffffffffff167fddf252ad1be2c89b69c2b068fc378daa952ba7f163c4a11628f55a4df523b3ef60405160405180910390a46111de6000838361150f565b5050565b6111eb8261149e565b61122a576040517f08c379a0000000000000000000000000000000000000000000000000000000008152600401611221906121d3565b60405180910390fd5b8060066000848152602001908152602001600020908051906020019061125192919061187b565b505050565b8173ffffffffffffffffffffffffffffffffffffffff168373ffffffffffffffffffffffffffffffffffffffff1614156112c5576040517f08c379a00000000000000000000000000000000000000000000000000000000081526004016112bc90612193565b60405180910390fd5b80600560008573ffffffffffffffffffffffffffffffffffffffff1673ffffffffffffffffffffffffffffffffffffffff16815260200190815260200160002060008473ffffffffffffffffffffffffffffffffffffffff1673ffffffffffffffffffffffffffffffffffffffff16815260200190815260200160002060006101000a81548160ff0219169083151502179055508173ffffffffffffffffffffffffffffffffffffffff168373ffffffffffffffffffffffffffffffffffffffff167f17307eab39ab6107e8899845ad3d59bd9653f200f220920489ca2b5937696c31836040516113b691906120b6565b60405180910390a3505050565b6113ce848484610d52565b6113da84848484611514565b611419576040517f08c379a000000000000000000000000000000000000000000000000000000000815260040161141090612113565b60405180910390fd5b50505050565b606060405180602001604052806000815250905090565b606061144182610bb1565b600061144b61141f565b9050600081511161146b5760405180602001604052806000815250611496565b80611475846116ab565b60405160200161148692919061202b565b6040516020818303038152906040525b915050919050565b60008073ffffffffffffffffffffffffffffffffffffffff166002600084815260200190815260200160002060009054906101000a900473ffffffffffffffffffffffffffffffffffffffff1673ffffffffffffffffffffffffffffffffffffffff1614159050919050565b505050565b505050565b60006115358473ffffffffffffffffffffffffffffffffffffffff16611858565b1561169e578373ffffffffffffffffffffffffffffffffffffffff1663150b7a0261155e610bfc565b8786866040518563ffffffff1660e01b8152600401611580949392919061206a565b602060405180830381600087803b15801561159a57600080fd5b505af19250505080156115cb57506040513d601f19601f820116820180604052508101906115c89190611d24565b60015b61164e573d80600081146115fb576040519150601f19603f3d011682016040523d82523d6000602084013e611600565b606091505b50600081511415611646576040517f08c379a000000000000000000000000000000000000000000000000000000000815260040161163d90612113565b60405180910390fd5b805181602001fd5b63150b7a0260e01b7bffffffffffffffffffffffffffffffffffffffffffffffffffffffff1916817bffffffffffffffffffffffffffffffffffffffffffffffffffffffff1916149150506116a3565b600190505b949350505050565b606060008214156116f3576040518060400160405280600181526020017f30000000000000000000000000000000000000000000000000000000000000008152509050611853565b600082905060005b6000821461172557808061170e90612558565b915050600a8261171e91906123da565b91506116fb565b60008167ffffffffffffffff811115611767577f4e487b7100000000000000000000000000000000000000000000000000000000600052604160045260246000fd5b6040519080825280601f01601f1916602001820160405280156117995781602001600182028036833780820191505090505b5090505b6000851461184c576001826117b2919061240b565b9150600a856117c191906125a1565b60306117cd9190612384565b60f81b818381518110611809577f4e487b7100000000000000000000000000000000000000000000000000000000600052603260045260246000fd5b60200101907effffffffffffffffffffffffffffffffffffffffffffffffffffffffffffff1916908160001a905350600a8561184591906123da565b945061179d565b8093505050505b919050565b6000808273ffffffffffffffffffffffffffffffffffffffff163b119050919050565b828054611887906124f5565b90600052602060002090601f0160209004810192826118a957600085556118f0565b82601f106118c257805160ff19168380011785556118f0565b828001600101855582156118f0579182015b828111156118ef5782518255916020019190600101906118d4565b5b5090506118fd9190611901565b5090565b5b8082111561191a576000816000905550600101611902565b5090565b600061193161192c846122b3565b61228e565b9050808382526020820190508285602086028201111561195057600080fd5b60005b8581101561198057816119668882611ad8565b845260208401935060208301925050600181019050611953565b5050509392505050565b600061199d611998846122df565b61228e565b9050828152602081018484840111156119b557600080fd5b6119c08482856124b3565b509392505050565b60006119db6119d684612310565b61228e565b9050828152602081018484840111156119f357600080fd5b6119fe8482856124b3565b509392505050565b600081359050611a15816129bb565b92915050565b600082601f830112611a2c57600080fd5b8135611a3c84826020860161191e565b91505092915050565b600081359050611a54816129d2565b92915050565b600081359050611a69816129e9565b92915050565b600081519050611a7e816129e9565b92915050565b600082601f830112611a9557600080fd5b8135611aa584826020860161198a565b91505092915050565b600082601f830112611abf57600080fd5b8135611acf8482602086016119c8565b91505092915050565b600081359050611ae781612a00565b92915050565b600060208284031215611aff57600080fd5b6000611b0d84828501611a06565b91505092915050565b60008060408385031215611b2957600080fd5b6000611b3785828601611a06565b9250506020611b4885828601611a06565b9150509250929050565b600080600060608486031215611b6757600080fd5b6000611b7586828701611a06565b9350506020611b8686828701611a06565b925050604084013567ffffffffffffffff811115611ba357600080fd5b611baf86828701611a1b565b9150509250925092565b600080600060608486031215611bce57600080fd5b6000611bdc86828701611a06565b9350506020611bed86828701611a06565b9250506040611bfe86828701611ad8565b9150509250925092565b60008060008060808587031215611c1e57600080fd5b6000611c2c87828801611a06565b9450506020611c3d87828801611a06565b9350506040611c4e87828801611ad8565b925050606085013567ffffffffffffffff811115611c6b57600080fd5b611c7787828801611a84565b91505092959194509250565b60008060408385031215611c9657600080fd5b6000611ca485828601611a06565b9250506020611cb585828601611a45565b9150509250929050565b60008060408385031215611cd257600080fd5b6000611ce085828601611a06565b9250506020611cf185828601611ad8565b9150509250929050565b600060208284031215611d0d57600080fd5b6000611d1b84828501611a5a565b91505092915050565b600060208284031215611d3657600080fd5b6000611d4484828501611a6f565b91505092915050565b600060208284031215611d5f57600080fd5b600082013567ffffffffffffffff811115611d7957600080fd5b611d8584828501611aae565b91505092915050565b600060208284031215611da057600080fd5b6000611dae84828501611ad8565b91505092915050565b611dc08161243f565b82525050565b611dcf81612451565b82525050565b6000611de082612341565b611dea8185612357565b9350611dfa8185602086016124c2565b611e038161268e565b840191505092915050565b6000611e198261234c565b611e238185612368565b9350611e338185602086016124c2565b611e3c8161268e565b840191505092915050565b6000611e528261234c565b611e5c8185612379565b9350611e6c8185602086016124c2565b80840191505092915050565b6000611e85602d83612368565b9150611e908261269f565b604082019050919050565b6000611ea8603283612368565b9150611eb3826126ee565b604082019050919050565b6000611ecb602583612368565b9150611ed68261273d565b604082019050919050565b6000611eee601c83612368565b9150611ef98261278c565b602082019050919050565b6000611f11602483612368565b9150611f1c826127b5565b604082019050919050565b6000611f34601983612368565b9150611f3f82612804565b602082019050919050565b6000611f57602983612368565b9150611f628261282d565b604082019050919050565b6000611f7a602e83612368565b9150611f858261287c565b604082019050919050565b6000611f9d602083612368565b9150611fa8826128cb565b602082019050919050565b6000611fc0601883612368565b9150611fcb826128f4565b602082019050919050565b6000611fe3602183612368565b9150611fee8261291d565b604082019050919050565b6000612006603d83612368565b91506120118261296c565b604082019050919050565b612025816124a9565b82525050565b60006120378285611e47565b91506120438284611e47565b91508190509392505050565b60006020820190506120646000830184611db7565b92915050565b600060808201905061207f6000830187611db7565b61208c6020830186611db7565b612099604083018561201c565b81810360608301526120ab8184611dd5565b905095945050505050565b60006020820190506120cb6000830184611dc6565b92915050565b600060208201905081810360008301526120eb8184611e0e565b905092915050565b6000602082019050818103600083015261210c81611e78565b9050919050565b6000602082019050818103600083015261212c81611e9b565b9050919050565b6000602082019050818103600083015261214c81611ebe565b9050919050565b6000602082019050818103600083015261216c81611ee1565b9050919050565b6000602082019050818103600083015261218c81611f04565b9050919050565b600060208201905081810360008301526121ac81611f27565b9050919050565b600060208201905081810360008301526121cc81611f4a565b9050919050565b600060208201905081810360008301526121ec81611f6d565b9050919050565b6000602082019050818103600083015261220c81611f90565b9050919050565b6000602082019050818103600083015261222c81611fb3565b9050919050565b6000602082019050818103600083015261224c81611fd6565b9050919050565b6000602082019050818103600083015261226c81611ff9565b9050919050565b6000602082019050612288600083018461201c565b92915050565b60006122986122a9565b90506122a48282612527565b919050565b6000604051905090565b600067ffffffffffffffff8211156122ce576122cd61265f565b5b602082029050602081019050919050565b600067ffffffffffffffff8211156122fa576122f961265f565b5b6123038261268e565b9050602081019050919050565b600067ffffffffffffffff82111561232b5761232a61265f565b5b6123348261268e565b9050602081019050919050565b600081519050919050565b600081519050919050565b600082825260208201905092915050565b600082825260208201905092915050565b600081905092915050565b600061238f826124a9565b915061239a836124a9565b9250827fffffffffffffffffffffffffffffffffffffffffffffffffffffffffffffffff038211156123cf576123ce6125d2565b5b828201905092915050565b60006123e5826124a9565b91506123f0836124a9565b925082612400576123ff612601565b5b828204905092915050565b6000612416826124a9565b9150612421836124a9565b925082821015612434576124336125d2565b5b828203905092915050565b600061244a82612489565b9050919050565b60008115159050919050565b60007fffffffff0000000000000000000000000000000000000000000000000000000082169050919050565b600073ffffffffffffffffffffffffffffffffffffffff82169050919050565b6000819050919050565b82818337600083830152505050565b60005b838110156124e05780820151818401526020810190506124c5565b838111156124ef576000848401525b50505050565b6000600282049050600182168061250d57607f821691505b6020821081141561252157612520612630565b5b50919050565b6125308261268e565b810181811067ffffffffffffffff8211171561254f5761254e61265f565b5b80604052505050565b6000612563826124a9565b91507fffffffffffffffffffffffffffffffffffffffffffffffffffffffffffffffff821415612596576125956125d2565b5b600182019050919050565b60006125ac826124a9565b91506125b7836124a9565b9250826125c7576125c6612601565b5b828206905092915050565b7f4e487b7100000000000000000000000000000000000000000000000000000000600052601160045260246000fd5b7f4e487b7100000000000000000000000000000000000000000000000000000000600052601260045260246000fd5b7f4e487b7100000000000000000000000000000000000000000000000000000000600052602260045260246000fd5b7f4e487b7100000000000000000000000000000000000000000000000000000000600052604160045260246000fd5b6000601f19601f8301169050919050565b7f4552433732313a2063616c6c6572206973206e6f7420746f6b656e206f776e6560008201527f72206f7220617070726f76656400000000000000000000000000000000000000602082015250565b7f4552433732313a207472616e7366657220746f206e6f6e20455243373231526560008201527f63656976657220696d706c656d656e7465720000000000000000000000000000602082015250565b7f4552433732313a207472616e736665722066726f6d20696e636f72726563742060008201527f6f776e6572000000000000000000000000000000000000000000000000000000602082015250565b7f4552433732313a20746f6b656e20616c7265616479206d696e74656400000000600082015250565b7f4552433732313a207472616e7366657220746f20746865207a65726f2061646460008201527f7265737300000000000000000000000000000000000000000000000000000000602082015250565b7f4552433732313a20617070726f766520746f2063616c6c657200000000000000600082015250565b7f4552433732313a2061646472657373207a65726f206973206e6f74206120766160008201527f6c6964206f776e65720000000000000000000000000000000000000000000000602082015250565b7f45524337323155524953746f726167653a2055524920736574206f66206e6f6e60008201527f6578697374656e7420746f6b656e000000000000000000000000000000000000602082015250565b7f4552433732313a206d696e7420746f20746865207a65726f2061646472657373600082015250565b7f4552433732313a20696e76616c696420746f6b656e2049440000000000000000600082015250565b7f4552433732313a20617070726f76616c20746f2063757272656e74206f776e6560008201527f7200000000000000000000000000000000000000000000000000000000000000602082015250565b7f4552433732313a20617070726f76652063616c6c6572206973206e6f7420746f60008201527f6b656e206f776e6572206f7220617070726f76656420666f7220616c6c000000602082015250565b6129c48161243f565b81146129cf57600080fd5b50565b6129db81612451565b81146129e657600080fd5b50565b6129f28161245d565b81146129fd57600080fd5b50565b612a09816124a9565b8114612a1457600080fd5b5056fea26469706673582212209d46e7bc3ba1ad32f77fc1e1c4f72646af4a9bfd75e69a9f8a04197daae905de64736f6c63430008010033",
  "linkReferences": {},
  "deployedLinkReferences": {}
}